{
    "_format": "hh-sol-artifact-1",
    "contractName": "Domains",
    "sourceName": "contracts/Domains.sol",
    "abi": [
        {
            "inputs": [
                {
                    "internalType": "string",
                    "name": "_tld",
                    "type": "string"
                }
            ],
            "stateMutability": "payable",
            "type": "constructor"
        },
        {
            "inputs": [],
            "name": "AlreadyRegistered",
            "type": "error"
        },
        {
            "inputs": [
                {
                    "internalType": "string",
                    "name": "name",
                    "type": "string"
                }
            ],
            "name": "InvalidName",
            "type": "error"
        },
        {
            "inputs": [],
            "name": "Unauthorized",
            "type": "error"
        },
        {
            "anonymous": false,
            "inputs": [
                {
                    "indexed": true,
                    "internalType": "address",
                    "name": "owner",
                    "type": "address"
                },
                {
                    "indexed": true,
                    "internalType": "address",
                    "name": "approved",
                    "type": "address"
                },
                {
                    "indexed": true,
                    "internalType": "uint256",
                    "name": "tokenId",
                    "type": "uint256"
                }
            ],
            "name": "Approval",
            "type": "event"
        },
        {
            "anonymous": false,
            "inputs": [
                {
                    "indexed": true,
                    "internalType": "address",
                    "name": "owner",
                    "type": "address"
                },
                {
                    "indexed": true,
                    "internalType": "address",
                    "name": "operator",
                    "type": "address"
                },
                {
                    "indexed": false,
                    "internalType": "bool",
                    "name": "approved",
                    "type": "bool"
                }
            ],
            "name": "ApprovalForAll",
            "type": "event"
        },
        {
            "anonymous": false,
            "inputs": [
                {
                    "indexed": true,
                    "internalType": "address",
                    "name": "from",
                    "type": "address"
                },
                {
                    "indexed": true,
                    "internalType": "address",
                    "name": "to",
                    "type": "address"
                },
                {
                    "indexed": true,
                    "internalType": "uint256",
                    "name": "tokenId",
                    "type": "uint256"
                }
            ],
            "name": "Transfer",
            "type": "event"
        },
        {
            "inputs": [
                {
                    "internalType": "address",
                    "name": "to",
                    "type": "address"
                },
                {
                    "internalType": "uint256",
                    "name": "tokenId",
                    "type": "uint256"
                }
            ],
            "name": "approve",
            "outputs": [],
            "stateMutability": "nonpayable",
            "type": "function"
        },
        {
            "inputs": [
                {
                    "internalType": "address",
                    "name": "owner",
                    "type": "address"
                }
            ],
            "name": "balanceOf",
            "outputs": [
                {
                    "internalType": "uint256",
                    "name": "",
                    "type": "uint256"
                }
            ],
            "stateMutability": "view",
            "type": "function"
        },
        {
            "inputs": [
                {
                    "internalType": "string",
                    "name": "",
                    "type": "string"
                }
            ],
            "name": "domains",
            "outputs": [
                {
                    "internalType": "address",
                    "name": "",
                    "type": "address"
                }
            ],
            "stateMutability": "view",
            "type": "function"
        },
        {
            "inputs": [
                {
                    "internalType": "string",
                    "name": "name",
                    "type": "string"
                }
            ],
            "name": "getAddress",
            "outputs": [
                {
                    "internalType": "address",
                    "name": "",
                    "type": "address"
                }
            ],
            "stateMutability": "view",
            "type": "function"
        },
        {
            "inputs": [],
            "name": "getAllNames",
            "outputs": [
                {
                    "internalType": "string[]",
                    "name": "",
                    "type": "string[]"
                }
            ],
            "stateMutability": "view",
            "type": "function"
        },
        {
            "inputs": [
                {
                    "internalType": "uint256",
                    "name": "tokenId",
                    "type": "uint256"
                }
            ],
            "name": "getApproved",
            "outputs": [
                {
                    "internalType": "address",
                    "name": "",
                    "type": "address"
                }
            ],
            "stateMutability": "view",
            "type": "function"
        },
        {
            "inputs": [
                {
                    "internalType": "string",
                    "name": "name",
                    "type": "string"
                }
            ],
            "name": "getPrice",
            "outputs": [
                {
                    "internalType": "uint256",
                    "name": "",
                    "type": "uint256"
                }
            ],
            "stateMutability": "pure",
            "type": "function"
        },
        {
            "inputs": [
                {
                    "internalType": "string",
                    "name": "name",
                    "type": "string"
                }
            ],
            "name": "getRecord",
            "outputs": [
                {
                    "internalType": "string",
                    "name": "",
                    "type": "string"
                }
            ],
            "stateMutability": "view",
            "type": "function"
        },
        {
            "inputs": [
                {
                    "internalType": "address",
                    "name": "owner",
                    "type": "address"
                },
                {
                    "internalType": "address",
                    "name": "operator",
                    "type": "address"
                }
            ],
            "name": "isApprovedForAll",
            "outputs": [
                {
                    "internalType": "bool",
                    "name": "",
                    "type": "bool"
                }
            ],
            "stateMutability": "view",
            "type": "function"
        },
        {
            "inputs": [],
            "name": "isOwner",
            "outputs": [
                {
                    "internalType": "bool",
                    "name": "",
                    "type": "bool"
                }
            ],
            "stateMutability": "view",
            "type": "function"
        },
        {
            "inputs": [],
            "name": "name",
            "outputs": [
                {
                    "internalType": "string",
                    "name": "",
                    "type": "string"
                }
            ],
            "stateMutability": "view",
            "type": "function"
        },
        {
            "inputs": [
                {
                    "internalType": "uint256",
                    "name": "",
                    "type": "uint256"
                }
            ],
            "name": "names",
            "outputs": [
                {
                    "internalType": "string",
                    "name": "",
                    "type": "string"
                }
            ],
            "stateMutability": "view",
            "type": "function"
        },
        {
            "inputs": [],
            "name": "owner",
            "outputs": [
                {
                    "internalType": "address payable",
                    "name": "",
                    "type": "address"
                }
            ],
            "stateMutability": "view",
            "type": "function"
        },
        {
            "inputs": [
                {
                    "internalType": "uint256",
                    "name": "tokenId",
                    "type": "uint256"
                }
            ],
            "name": "ownerOf",
            "outputs": [
                {
                    "internalType": "address",
                    "name": "",
                    "type": "address"
                }
            ],
            "stateMutability": "view",
            "type": "function"
        },
        {
            "inputs": [
                {
                    "internalType": "string",
                    "name": "",
                    "type": "string"
                }
            ],
            "name": "records",
            "outputs": [
                {
                    "internalType": "string",
                    "name": "",
                    "type": "string"
                }
            ],
            "stateMutability": "view",
            "type": "function"
        },
        {
            "inputs": [
                {
                    "internalType": "string",
                    "name": "name",
                    "type": "string"
                }
            ],
            "name": "register",
            "outputs": [],
            "stateMutability": "payable",
            "type": "function"
        },
        {
            "inputs": [
                {
                    "internalType": "address",
                    "name": "from",
                    "type": "address"
                },
                {
                    "internalType": "address",
                    "name": "to",
                    "type": "address"
                },
                {
                    "internalType": "uint256",
                    "name": "tokenId",
                    "type": "uint256"
                }
            ],
            "name": "safeTransferFrom",
            "outputs": [],
            "stateMutability": "nonpayable",
            "type": "function"
        },
        {
            "inputs": [
                {
                    "internalType": "address",
                    "name": "from",
                    "type": "address"
                },
                {
                    "internalType": "address",
                    "name": "to",
                    "type": "address"
                },
                {
                    "internalType": "uint256",
                    "name": "tokenId",
                    "type": "uint256"
                },
                {
                    "internalType": "bytes",
                    "name": "_data",
                    "type": "bytes"
                }
            ],
            "name": "safeTransferFrom",
            "outputs": [],
            "stateMutability": "nonpayable",
            "type": "function"
        },
        {
            "inputs": [
                {
                    "internalType": "address",
                    "name": "operator",
                    "type": "address"
                },
                {
                    "internalType": "bool",
                    "name": "approved",
                    "type": "bool"
                }
            ],
            "name": "setApprovalForAll",
            "outputs": [],
            "stateMutability": "nonpayable",
            "type": "function"
        },
        {
            "inputs": [
                {
                    "internalType": "string",
                    "name": "name",
                    "type": "string"
                },
                {
                    "internalType": "string",
                    "name": "record",
                    "type": "string"
                }
            ],
            "name": "setRecord",
            "outputs": [],
            "stateMutability": "nonpayable",
            "type": "function"
        },
        {
            "inputs": [
                {
                    "internalType": "bytes4",
                    "name": "interfaceId",
                    "type": "bytes4"
                }
            ],
            "name": "supportsInterface",
            "outputs": [
                {
                    "internalType": "bool",
                    "name": "",
                    "type": "bool"
                }
            ],
            "stateMutability": "view",
            "type": "function"
        },
        {
            "inputs": [],
            "name": "symbol",
            "outputs": [
                {
                    "internalType": "string",
                    "name": "",
                    "type": "string"
                }
            ],
            "stateMutability": "view",
            "type": "function"
        },
        {
            "inputs": [
                {
                    "internalType": "uint256",
                    "name": "tokenId",
                    "type": "uint256"
                }
            ],
            "name": "tokenURI",
            "outputs": [
                {
                    "internalType": "string",
                    "name": "",
                    "type": "string"
                }
            ],
            "stateMutability": "view",
            "type": "function"
        },
        {
            "inputs": [
                {
                    "internalType": "address",
                    "name": "from",
                    "type": "address"
                },
                {
                    "internalType": "address",
                    "name": "to",
                    "type": "address"
                },
                {
                    "internalType": "uint256",
                    "name": "tokenId",
                    "type": "uint256"
                }
            ],
            "name": "transferFrom",
            "outputs": [],
            "stateMutability": "nonpayable",
            "type": "function"
        },
        {
            "inputs": [
                {
                    "internalType": "string",
                    "name": "name",
                    "type": "string"
                }
            ],
            "name": "valid",
            "outputs": [
                {
                    "internalType": "bool",
                    "name": "",
                    "type": "bool"
                }
            ],
            "stateMutability": "pure",
            "type": "function"
        },
        {
            "inputs": [],
            "name": "withdraw",
            "outputs": [],
            "stateMutability": "nonpayable",
            "type": "function"
        }
    ],
    "bytecode": "0x6080604052604051806108a0016040528061086b81526020016200571161086b9139600990805190602001906200003892919062000410565b506040518060400160405280600d81526020017f3c2f746578743e3c2f7376673e00000000000000000000000000000000000000815250600a90805190602001906200008692919062000410565b5060405162005f7c38038062005f7c8339818101604052810190620000ac91906200065d565b6040518060400160405280601481526020017f53616d75726169204e616d6520536572766963650000000000000000000000008152506040518060400160405280600381526020017f534e53000000000000000000000000000000000000000000000000000000000081525081600090805190602001906200013092919062000410565b5080600190805190602001906200014992919062000410565b50505033600e60006101000a81548173ffffffffffffffffffffffffffffffffffffffff021916908373ffffffffffffffffffffffffffffffffffffffff1602179055508060089080519060200190620001a592919062000410565b5062000268604051806060016040528060388152602001620056d96038913960088054620001d390620006dd565b80601f01602080910402602001604051908101604052809291908181526020018280546200020190620006dd565b8015620002525780601f10620002265761010080835404028352916020019162000252565b820191906000526020600020905b8154815290600101906020018083116200023457829003601f168201915b50505050506200029e60201b62001b581760201c565b620002976040518060800160405280605f81526020016200567a605f91396200034460201b62001bf41760201c565b50620007cf565b620003408282604051602401620002b792919062000770565b6040516020818303038152906040527f4b5c4277000000000000000000000000000000000000000000000000000000007bffffffffffffffffffffffffffffffffffffffffffffffffffffffff19166020820180517bffffffffffffffffffffffffffffffffffffffffffffffffffffffff8381831617835250505050620003e760201b60201c565b5050565b620003e4816040516024016200035b9190620007ab565b6040516020818303038152906040527f41304fac000000000000000000000000000000000000000000000000000000007bffffffffffffffffffffffffffffffffffffffffffffffffffffffff19166020820180517bffffffffffffffffffffffffffffffffffffffffffffffffffffffff8381831617835250505050620003e760201b60201c565b50565b60008151905060006a636f6e736f6c652e6c6f679050602083016000808483855afa5050505050565b8280546200041e90620006dd565b90600052602060002090601f0160209004810192826200044257600085556200048e565b82601f106200045d57805160ff19168380011785556200048e565b828001600101855582156200048e579182015b828111156200048d57825182559160200191906001019062000470565b5b5090506200049d9190620004a1565b5090565b5b80821115620004bc576000816000905550600101620004a2565b5090565b6000604051905090565b600080fd5b600080fd5b600080fd5b600080fd5b6000601f19601f8301169050919050565b7f4e487b7100000000000000000000000000000000000000000000000000000000600052604160045260246000fd5b6200052982620004de565b810181811067ffffffffffffffff821117156200054b576200054a620004ef565b5b80604052505050565b600062000560620004c0565b90506200056e82826200051e565b919050565b600067ffffffffffffffff821115620005915762000590620004ef565b5b6200059c82620004de565b9050602081019050919050565b60005b83811015620005c9578082015181840152602081019050620005ac565b83811115620005d9576000848401525b50505050565b6000620005f6620005f08462000573565b62000554565b905082815260208101848484011115620006155762000614620004d9565b5b62000622848285620005a9565b509392505050565b600082601f830112620006425762000641620004d4565b5b815162000654848260208601620005df565b91505092915050565b600060208284031215620006765762000675620004ca565b5b600082015167ffffffffffffffff811115620006975762000696620004cf565b5b620006a5848285016200062a565b91505092915050565b7f4e487b7100000000000000000000000000000000000000000000000000000000600052602260045260246000fd5b60006002820490506001821680620006f657607f821691505b602082108114156200070d576200070c620006ae565b5b50919050565b600081519050919050565b600082825260208201905092915050565b60006200073c8262000713565b6200074881856200071e565b93506200075a818560208601620005a9565b6200076581620004de565b840191505092915050565b600060408201905081810360008301526200078c81856200072f565b90508181036020830152620007a281846200072f565b90509392505050565b60006020820190508181036000830152620007c781846200072f565b905092915050565b614e9b80620007df6000396000f3fe6080604052600436106101815760003560e01c806370a08231116100d1578063b88d4fde1161008a578063c87b56dd11610064578063c87b56dd146105de578063e985e9c51461061b578063f2c298be14610658578063fb825e5f1461067457610181565b8063b88d4fde1461054f578063bf40fac114610578578063c1880a98146105b557610181565b806370a082311461042b5780638da5cb5b146104685780638f32d59b1461049357806395d89b41146104be5780639791c097146104e9578063a22cb4651461052657610181565b8063264492351161013e5780634622ab03116101185780634622ab0314610337578063524f388914610374578063541e771d146103b15780636352211e146103ee57610181565b806326449235146102ba5780633ccfd60b146102f757806342842e0e1461030e57610181565b806301ffc9a71461018657806306fdde03146101c3578063081812fc146101ee578063095ea7b31461022b57806311dd88451461025457806323b872dd14610291575b600080fd5b34801561019257600080fd5b506101ad60048036038101906101a8919061317e565b61069f565b6040516101ba91906131c6565b60405180910390f35b3480156101cf57600080fd5b506101d8610781565b6040516101e5919061327a565b60405180910390f35b3480156101fa57600080fd5b50610215600480360381019061021091906132d2565b610813565b6040516102229190613340565b60405180910390f35b34801561023757600080fd5b50610252600480360381019061024d9190613387565b610898565b005b34801561026057600080fd5b5061027b6004803603810190610276919061342c565b6109b0565b604051610288919061327a565b60405180910390f35b34801561029d57600080fd5b506102b860048036038101906102b39190613479565b610a63565b005b3480156102c657600080fd5b506102e160048036038101906102dc91906135fc565b610ac3565b6040516102ee9190613340565b60405180910390f35b34801561030357600080fd5b5061030c610b0c565b005b34801561031a57600080fd5b5061033560048036038101906103309190613479565b610bd2565b005b34801561034357600080fd5b5061035e600480360381019061035991906132d2565b610bf2565b60405161036b919061327a565b60405180910390f35b34801561038057600080fd5b5061039b6004803603810190610396919061342c565b610c92565b6040516103a89190613654565b60405180910390f35b3480156103bd57600080fd5b506103d860048036038101906103d391906135fc565b610d02565b6040516103e5919061327a565b60405180910390f35b3480156103fa57600080fd5b50610415600480360381019061041091906132d2565b610db8565b6040516104229190613340565b60405180910390f35b34801561043757600080fd5b50610452600480360381019061044d919061366f565b610e6a565b60405161045f9190613654565b60405180910390f35b34801561047457600080fd5b5061047d610f22565b60405161048a91906136bd565b60405180910390f35b34801561049f57600080fd5b506104a8610f48565b6040516104b591906131c6565b60405180910390f35b3480156104ca57600080fd5b506104d3610fa0565b6040516104e0919061327a565b60405180910390f35b3480156104f557600080fd5b50610510600480360381019061050b919061342c565b611032565b60405161051d91906131c6565b60405180910390f35b34801561053257600080fd5b5061054d60048036038101906105489190613704565b6110e6565b005b34801561055b57600080fd5b50610576600480360381019061057191906137e5565b6110fc565b005b34801561058457600080fd5b5061059f600480360381019061059a919061342c565b61115e565b6040516105ac9190613340565b60405180910390f35b3480156105c157600080fd5b506105dc60048036038101906105d79190613868565b6111a9565b005b3480156105ea57600080fd5b50610605600480360381019061060091906132d2565b611330565b604051610612919061327a565b60405180910390f35b34801561062757600080fd5b50610642600480360381019061063d91906138e9565b611482565b60405161064f91906131c6565b60405180910390f35b610672600480360381019061066d919061342c565b611516565b005b34801561068057600080fd5b5061068961197a565b6040516106969190613a35565b60405180910390f35b60007f80ac58cd000000000000000000000000000000000000000000000000000000007bffffffffffffffffffffffffffffffffffffffffffffffffffffffff1916827bffffffffffffffffffffffffffffffffffffffffffffffffffffffff1916148061076a57507f5b5e139f000000000000000000000000000000000000000000000000000000007bffffffffffffffffffffffffffffffffffffffffffffffffffffffff1916827bffffffffffffffffffffffffffffffffffffffffffffffffffffffff1916145b8061077a575061077982611c8d565b5b9050919050565b60606000805461079090613a86565b80601f01602080910402602001604051908101604052809291908181526020018280546107bc90613a86565b80156108095780601f106107de57610100808354040283529160200191610809565b820191906000526020600020905b8154815290600101906020018083116107ec57829003601f168201915b5050505050905090565b600061081e82611cf7565b61085d576040517f08c379a000000000000000000000000000000000000000000000000000000000815260040161085490613b2a565b60405180910390fd5b6004600083815260200190815260200160002060009054906101000a900473ffffffffffffffffffffffffffffffffffffffff169050919050565b60006108a382610db8565b90508073ffffffffffffffffffffffffffffffffffffffff168373ffffffffffffffffffffffffffffffffffffffff161415610914576040517f08c379a000000000000000000000000000000000000000000000000000000000815260040161090b90613bbc565b60405180910390fd5b8073ffffffffffffffffffffffffffffffffffffffff16610933611d63565b73ffffffffffffffffffffffffffffffffffffffff16148061096257506109618161095c611d63565b611482565b5b6109a1576040517f08c379a000000000000000000000000000000000000000000000000000000000815260040161099890613c4e565b60405180910390fd5b6109ab8383611d6b565b505050565b6060600c83836040516109c4929190613c9e565b908152602001604051809103902080546109dd90613a86565b80601f0160208091040260200160405190810160405280929190818152602001828054610a0990613a86565b8015610a565780601f10610a2b57610100808354040283529160200191610a56565b820191906000526020600020905b815481529060010190602001808311610a3957829003601f168201915b5050505050905092915050565b610a74610a6e611d63565b82611e24565b610ab3576040517f08c379a0000000000000000000000000000000000000000000000000000000008152600401610aaa90613d29565b60405180910390fd5b610abe838383611f02565b505050565b600b818051602081018201805184825260208301602085012081835280955050505050506000915054906101000a900473ffffffffffffffffffffffffffffffffffffffff1681565b610b14610f48565b610b1d57600080fd5b600047905060003373ffffffffffffffffffffffffffffffffffffffff1682604051610b4890613d7a565b60006040518083038185875af1925050503d8060008114610b85576040519150601f19603f3d011682016040523d82523d6000602084013e610b8a565b606091505b5050905080610bce576040517f08c379a0000000000000000000000000000000000000000000000000000000008152600401610bc590613ddb565b60405180910390fd5b5050565b610bed838383604051806020016040528060008152506110fc565b505050565b600d6020528060005260406000206000915090508054610c1190613a86565b80601f0160208091040260200160405190810160405280929190818152602001828054610c3d90613a86565b8015610c8a5780601f10610c5f57610100808354040283529160200191610c8a565b820191906000526020600020905b815481529060010190602001808311610c6d57829003601f168201915b505050505081565b600080610ce284848080601f016020809104026020016040519081016040528093929190818152602001838380828437600081840152601f19601f82011690508083019250505050505050612169565b905060008111610cf157600080fd5b662386f26fc1000091505092915050565b600c818051602081018201805184825260208301602085012081835280955050505050506000915090508054610d3790613a86565b80601f0160208091040260200160405190810160405280929190818152602001828054610d6390613a86565b8015610db05780601f10610d8557610100808354040283529160200191610db0565b820191906000526020600020905b815481529060010190602001808311610d9357829003601f168201915b505050505081565b6000806002600084815260200190815260200160002060009054906101000a900473ffffffffffffffffffffffffffffffffffffffff169050600073ffffffffffffffffffffffffffffffffffffffff168173ffffffffffffffffffffffffffffffffffffffff161415610e61576040517f08c379a0000000000000000000000000000000000000000000000000000000008152600401610e5890613e6d565b60405180910390fd5b80915050919050565b60008073ffffffffffffffffffffffffffffffffffffffff168273ffffffffffffffffffffffffffffffffffffffff161415610edb576040517f08c379a0000000000000000000000000000000000000000000000000000000008152600401610ed290613eff565b60405180910390fd5b600360008373ffffffffffffffffffffffffffffffffffffffff1673ffffffffffffffffffffffffffffffffffffffff168152602001908152602001600020549050919050565b600e60009054906101000a900473ffffffffffffffffffffffffffffffffffffffff1681565b6000600e60009054906101000a900473ffffffffffffffffffffffffffffffffffffffff1673ffffffffffffffffffffffffffffffffffffffff163373ffffffffffffffffffffffffffffffffffffffff1614905090565b606060018054610faf90613a86565b80601f0160208091040260200160405190810160405280929190818152602001828054610fdb90613a86565b80156110285780601f10610ffd57610100808354040283529160200191611028565b820191906000526020600020905b81548152906001019060200180831161100b57829003601f168201915b5050505050905090565b6000600361108384848080601f016020809104026020016040519081016040528093929190818152602001838380828437600081840152601f19601f82011690508083019250505050505050612169565b101580156110de5750600a6110db84848080601f016020809104026020016040519081016040528093929190818152602001838380828437600081840152601f19601f82011690508083019250505050505050612169565b11155b905092915050565b6110f86110f1611d63565b838361231e565b5050565b61110d611107611d63565b83611e24565b61114c576040517f08c379a000000000000000000000000000000000000000000000000000000000815260040161114390613d29565b60405180910390fd5b6111588484848461248b565b50505050565b6000600b8383604051611172929190613c9e565b908152602001604051809103902060009054906101000a900473ffffffffffffffffffffffffffffffffffffffff16905092915050565b600b84846040516111bb929190613c9e565b908152602001604051809103902060009054906101000a900473ffffffffffffffffffffffffffffffffffffffff1673ffffffffffffffffffffffffffffffffffffffff163373ffffffffffffffffffffffffffffffffffffffff161461124e576040517f82b4290000000000000000000000000000000000000000000000000000000000815260040160405180910390fd5b8181600c8686604051611262929190613c9e565b9081526020016040518091039020919061127d929190612fe9565b5061132a604051806060016040528060358152602001614e31603591393386868080601f016020809104026020016040519081016040528093929190818152602001838380828437600081840152601f19601f8201169050808301925050505050505085858080601f016020809104026020016040519081016040528093929190818152602001838380828437600081840152601f19601f820116905080830192505050505050506124e7565b50505050565b606061133b82611cf7565b61137a576040517f08c379a000000000000000000000000000000000000000000000000000000000815260040161137190613f91565b60405180910390fd5b600060066000848152602001908152602001600020805461139a90613a86565b80601f01602080910402602001604051908101604052809291908181526020018280546113c690613a86565b80156114135780601f106113e857610100808354040283529160200191611413565b820191906000526020600020905b8154815290600101906020018083116113f657829003601f168201915b505050505090506000611424612589565b905060008151141561143a57819250505061147d565b60008251111561146f578082604051602001611457929190613fe2565b6040516020818303038152906040529250505061147d565b611478846125a0565b925050505b919050565b6000600560008473ffffffffffffffffffffffffffffffffffffffff1673ffffffffffffffffffffffffffffffffffffffff16815260200190815260200160002060008373ffffffffffffffffffffffffffffffffffffffff1673ffffffffffffffffffffffffffffffffffffffff16815260200190815260200160002060009054906101000a900460ff16905092915050565b6115208282611032565b6115635781816040517f7f19f48d00000000000000000000000000000000000000000000000000000000815260040161155a929190614033565b60405180910390fd5b600073ffffffffffffffffffffffffffffffffffffffff16600b838360405161158d929190613c9e565b908152602001604051809103902060009054906101000a900473ffffffffffffffffffffffffffffffffffffffff1673ffffffffffffffffffffffffffffffffffffffff1614611609576040517f3a81d6fc00000000000000000000000000000000000000000000000000000000815260040160405180910390fd5b60006116158383610c92565b90508034101561165a576040517f08c379a0000000000000000000000000000000000000000000000000000000008152600401611651906140c9565b60405180910390fd5b600083836008604051602001611672939291906141c9565b60405160208183030381529060405290506000600982600a60405160200161169c939291906141fa565b604051602081830303815290604052905060006116b96007612647565b9050600061170a87878080601f016020809104026020016040519081016040528093929190818152602001838380828437600081840152601f19601f82011690508083019250505050505050612169565b9050600061171782612655565b905061180b604051806060016040528060318152602001614d976031913989898080601f016020809104026020016040519081016040528093929190818152602001838380828437600081840152601f19601f820116905080830192505050505050506008805461178790613a86565b80601f01602080910402602001604051908101604052809291908181526020018280546117b390613a86565b80156118005780601f106117d557610100808354040283529160200191611800565b820191906000526020600020905b8154815290600101906020018083116117e357829003601f168201915b5050505050866127b6565b60006118418661181a87612858565b8460405160200161182d939291906143a7565b604051602081830303815290604052612858565b90506000816040516020016118569190614450565b604051602081830303815290604052905061187133866129f0565b61187b8582612a0e565b33600b8b8b60405161188e929190613c9e565b908152602001604051809103902060006101000a81548173ffffffffffffffffffffffffffffffffffffffff021916908373ffffffffffffffffffffffffffffffffffffffff160217905550611941604051806060016040528060298152602001614e0860299139338c8c8080601f016020809104026020016040519081016040528093929190818152602001838380828437600081840152601f19601f82011690508083019250505050505050612a82565b8989600d60008881526020019081526020016000209190611963929190612fe9565b5061196e6007612b21565b50505050505050505050565b60606119ba6040518060400160405280601f81526020017f47657474696e6720616c6c206e616d65732066726f6d20636f6e747261637400815250611bf4565b60006119c66007612647565b67ffffffffffffffff8111156119df576119de6134d1565b5b604051908082528060200260200182016040528015611a1257816020015b60608152602001906001900390816119fd5790505b50905060005b611a226007612647565b811015611b5057600d60008281526020019081526020016000208054611a4790613a86565b80601f0160208091040260200160405190810160405280929190818152602001828054611a7390613a86565b8015611ac05780601f10611a9557610100808354040283529160200191611ac0565b820191906000526020600020905b815481529060010190602001808311611aa357829003601f168201915b5050505050828281518110611ad857611ad7614472565b5b6020026020010181905250611b3d6040518060400160405280601781526020017f4e616d6520666f7220746f6b656e20256420697320257300000000000000000081525082848481518110611b3057611b2f614472565b5b6020026020010151612b37565b8080611b48906144d0565b915050611a18565b508091505090565b611bf08282604051602401611b6e929190614519565b6040516020818303038152906040527f4b5c4277000000000000000000000000000000000000000000000000000000007bffffffffffffffffffffffffffffffffffffffffffffffffffffffff19166020820180517bffffffffffffffffffffffffffffffffffffffffffffffffffffffff8381831617835250505050612bd6565b5050565b611c8a81604051602401611c08919061327a565b6040516020818303038152906040527f41304fac000000000000000000000000000000000000000000000000000000007bffffffffffffffffffffffffffffffffffffffffffffffffffffffff19166020820180517bffffffffffffffffffffffffffffffffffffffffffffffffffffffff8381831617835250505050612bd6565b50565b60007f01ffc9a7000000000000000000000000000000000000000000000000000000007bffffffffffffffffffffffffffffffffffffffffffffffffffffffff1916827bffffffffffffffffffffffffffffffffffffffffffffffffffffffff1916149050919050565b60008073ffffffffffffffffffffffffffffffffffffffff166002600084815260200190815260200160002060009054906101000a900473ffffffffffffffffffffffffffffffffffffffff1673ffffffffffffffffffffffffffffffffffffffff1614159050919050565b600033905090565b816004600083815260200190815260200160002060006101000a81548173ffffffffffffffffffffffffffffffffffffffff021916908373ffffffffffffffffffffffffffffffffffffffff160217905550808273ffffffffffffffffffffffffffffffffffffffff16611dde83610db8565b73ffffffffffffffffffffffffffffffffffffffff167f8c5be1e5ebec7d5bd14f71427d1e84f3dd0314c0f7b2291e5b200ac8c7c3b92560405160405180910390a45050565b6000611e2f82611cf7565b611e6e576040517f08c379a0000000000000000000000000000000000000000000000000000000008152600401611e65906145c2565b60405180910390fd5b6000611e7983610db8565b90508073ffffffffffffffffffffffffffffffffffffffff168473ffffffffffffffffffffffffffffffffffffffff161480611ee857508373ffffffffffffffffffffffffffffffffffffffff16611ed084610813565b73ffffffffffffffffffffffffffffffffffffffff16145b80611ef95750611ef88185611482565b5b91505092915050565b8273ffffffffffffffffffffffffffffffffffffffff16611f2282610db8565b73ffffffffffffffffffffffffffffffffffffffff1614611f78576040517f08c379a0000000000000000000000000000000000000000000000000000000008152600401611f6f90614654565b60405180910390fd5b600073ffffffffffffffffffffffffffffffffffffffff168273ffffffffffffffffffffffffffffffffffffffff161415611fe8576040517f08c379a0000000000000000000000000000000000000000000000000000000008152600401611fdf906146e6565b60405180910390fd5b611ff3838383612bff565b611ffe600082611d6b565b6001600360008573ffffffffffffffffffffffffffffffffffffffff1673ffffffffffffffffffffffffffffffffffffffff168152602001908152602001600020600082825461204e9190614706565b925050819055506001600360008473ffffffffffffffffffffffffffffffffffffffff1673ffffffffffffffffffffffffffffffffffffffff16815260200190815260200160002060008282546120a5919061473a565b92505081905550816002600083815260200190815260200160002060006101000a81548173ffffffffffffffffffffffffffffffffffffffff021916908373ffffffffffffffffffffffffffffffffffffffff160217905550808273ffffffffffffffffffffffffffffffffffffffff168473ffffffffffffffffffffffffffffffffffffffff167fddf252ad1be2c89b69c2b068fc378daa952ba7f163c4a11628f55a4df523b3ef60405160405180910390a4612164838383612c04565b505050565b60008060008084519050600092505b8082101561231357600085838151811061219557612194614472565b5b602001015160f81c60f81b9050608060f81b817effffffffffffffffffffffffffffffffffffffffffffffffffffffffffffff191610156121e4576001836121dd919061473a565b92506122ff565b60e060f81b817effffffffffffffffffffffffffffffffffffffffffffffffffffffffffffff191610156122265760028361221f919061473a565b92506122fe565b60f060f81b817effffffffffffffffffffffffffffffffffffffffffffffffffffffffffffff1916101561226857600383612261919061473a565b92506122fd565b60f8801b817effffffffffffffffffffffffffffffffffffffffffffffffffffffffffffff191610156122a9576004836122a2919061473a565b92506122fc565b60fc60f81b817effffffffffffffffffffffffffffffffffffffffffffffffffffffffffffff191610156122eb576005836122e4919061473a565b92506122fb565b6006836122f8919061473a565b92505b5b5b5b5b50828061230b906144d0565b935050612178565b829350505050919050565b8173ffffffffffffffffffffffffffffffffffffffff168373ffffffffffffffffffffffffffffffffffffffff16141561238d576040517f08c379a0000000000000000000000000000000000000000000000000000000008152600401612384906147dc565b60405180910390fd5b80600560008573ffffffffffffffffffffffffffffffffffffffff1673ffffffffffffffffffffffffffffffffffffffff16815260200190815260200160002060008473ffffffffffffffffffffffffffffffffffffffff1673ffffffffffffffffffffffffffffffffffffffff16815260200190815260200160002060006101000a81548160ff0219169083151502179055508173ffffffffffffffffffffffffffffffffffffffff168373ffffffffffffffffffffffffffffffffffffffff167f17307eab39ab6107e8899845ad3d59bd9653f200f220920489ca2b5937696c318360405161247e91906131c6565b60405180910390a3505050565b612496848484611f02565b6124a284848484612c09565b6124e1576040517f08c379a00000000000000000000000000000000000000000000000000000000081526004016124d89061486e565b60405180910390fd5b50505050565b61258384848484604051602401612501949392919061488e565b6040516020818303038152906040527f245986f2000000000000000000000000000000000000000000000000000000007bffffffffffffffffffffffffffffffffffffffffffffffffffffffff19166020820180517bffffffffffffffffffffffffffffffffffffffffffffffffffffffff8381831617835250505050612bd6565b50505050565b606060405180602001604052806000815250905090565b60606125ab82611cf7565b6125ea576040517f08c379a00000000000000000000000000000000000000000000000000000000081526004016125e19061495a565b60405180910390fd5b60006125f4612589565b90506000815111612614576040518060200160405280600081525061263f565b8061261e84612655565b60405160200161262f929190613fe2565b6040516020818303038152906040525b915050919050565b600081600001549050919050565b6060600082141561269d576040518060400160405280600181526020017f300000000000000000000000000000000000000000000000000000000000000081525090506127b1565b600082905060005b600082146126cf5780806126b8906144d0565b915050600a826126c891906149a9565b91506126a5565b60008167ffffffffffffffff8111156126eb576126ea6134d1565b5b6040519080825280601f01601f19166020018201604052801561271d5781602001600182028036833780820191505090505b5090505b600085146127aa576001826127369190614706565b9150600a8561274591906149da565b6030612751919061473a565b60f81b81838151811061276757612766614472565b5b60200101907effffffffffffffffffffffffffffffffffffffffffffffffffffffffffffff1916908160001a905350600a856127a391906149a9565b9450612721565b8093505050505b919050565b612852848484846040516024016127d09493929190614a0b565b6040516020818303038152906040527f9fd009f5000000000000000000000000000000000000000000000000000000007bffffffffffffffffffffffffffffffffffffffffffffffffffffffff19166020820180517bffffffffffffffffffffffffffffffffffffffffffffffffffffffff8381831617835250505050612bd6565b50505050565b6060600082519050600081141561288157604051806020016040528060008152509150506129eb565b60006003600283612892919061473a565b61289c91906149a9565b60046128a89190614a65565b905060006020826128b9919061473a565b67ffffffffffffffff8111156128d2576128d16134d1565b5b6040519080825280601f01601f1916602001820160405280156129045781602001600182028036833780820191505090505b5090506000604051806060016040528060408152602001614dc8604091399050600181016020830160005b868110156129a85760038101905062ffffff818a015116603f8160121c168401518060081b905060ff603f83600c1c1686015116810190508060081b905060ff603f8360061c1686015116810190508060081b905060ff603f831686015116810190508060e01b9050808452600484019350505061292f565b5060038606600181146129c257600281146129d2576129dd565b613d3d60f01b60028303526129dd565b603d60f81b60018303525b508484525050819450505050505b919050565b612a0a828260405180602001604052806000815250612d91565b5050565b612a1782611cf7565b612a56576040517f08c379a0000000000000000000000000000000000000000000000000000000008152600401612a4d90614b31565b60405180910390fd5b80600660008481526020019081526020016000209080519060200190612a7d92919061306f565b505050565b612b1c838383604051602401612a9a93929190614b51565b6040516020818303038152906040527fe0e9ad4f000000000000000000000000000000000000000000000000000000007bffffffffffffffffffffffffffffffffffffffffffffffffffffffff19166020820180517bffffffffffffffffffffffffffffffffffffffffffffffffffffffff8381831617835250505050612bd6565b505050565b6001816000016000828254019250508190555050565b612bd1838383604051602401612b4f93929190614b96565b6040516020818303038152906040527fa3f5c739000000000000000000000000000000000000000000000000000000007bffffffffffffffffffffffffffffffffffffffffffffffffffffffff19166020820180517bffffffffffffffffffffffffffffffffffffffffffffffffffffffff8381831617835250505050612bd6565b505050565b60008151905060006a636f6e736f6c652e6c6f679050602083016000808483855afa5050505050565b505050565b505050565b6000612c2a8473ffffffffffffffffffffffffffffffffffffffff16612dec565b15612d84578373ffffffffffffffffffffffffffffffffffffffff1663150b7a02612c53611d63565b8786866040518563ffffffff1660e01b8152600401612c759493929190614c30565b6020604051808303816000875af1925050508015612cb157506040513d601f19601f82011682018060405250810190612cae9190614c91565b60015b612d34573d8060008114612ce1576040519150601f19603f3d011682016040523d82523d6000602084013e612ce6565b606091505b50600081511415612d2c576040517f08c379a0000000000000000000000000000000000000000000000000000000008152600401612d239061486e565b60405180910390fd5b805181602001fd5b63150b7a0260e01b7bffffffffffffffffffffffffffffffffffffffffffffffffffffffff1916817bffffffffffffffffffffffffffffffffffffffffffffffffffffffff191614915050612d89565b600190505b949350505050565b612d9b8383612e0f565b612da86000848484612c09565b612de7576040517f08c379a0000000000000000000000000000000000000000000000000000000008152600401612dde9061486e565b60405180910390fd5b505050565b6000808273ffffffffffffffffffffffffffffffffffffffff163b119050919050565b600073ffffffffffffffffffffffffffffffffffffffff168273ffffffffffffffffffffffffffffffffffffffff161415612e7f576040517f08c379a0000000000000000000000000000000000000000000000000000000008152600401612e7690614d0a565b60405180910390fd5b612e8881611cf7565b15612ec8576040517f08c379a0000000000000000000000000000000000000000000000000000000008152600401612ebf90614d76565b60405180910390fd5b612ed460008383612bff565b6001600360008473ffffffffffffffffffffffffffffffffffffffff1673ffffffffffffffffffffffffffffffffffffffff1681526020019081526020016000206000828254612f24919061473a565b92505081905550816002600083815260200190815260200160002060006101000a81548173ffffffffffffffffffffffffffffffffffffffff021916908373ffffffffffffffffffffffffffffffffffffffff160217905550808273ffffffffffffffffffffffffffffffffffffffff16600073ffffffffffffffffffffffffffffffffffffffff167fddf252ad1be2c89b69c2b068fc378daa952ba7f163c4a11628f55a4df523b3ef60405160405180910390a4612fe560008383612c04565b5050565b828054612ff590613a86565b90600052602060002090601f016020900481019282613017576000855561305e565b82601f1061303057803560ff191683800117855561305e565b8280016001018555821561305e579182015b8281111561305d578235825591602001919060010190613042565b5b50905061306b91906130f5565b5090565b82805461307b90613a86565b90600052602060002090601f01602090048101928261309d57600085556130e4565b82601f106130b657805160ff19168380011785556130e4565b828001600101855582156130e4579182015b828111156130e35782518255916020019190600101906130c8565b5b5090506130f191906130f5565b5090565b5b8082111561310e5760008160009055506001016130f6565b5090565b6000604051905090565b600080fd5b600080fd5b60007fffffffff0000000000000000000000000000000000000000000000000000000082169050919050565b61315b81613126565b811461316657600080fd5b50565b60008135905061317881613152565b92915050565b6000602082840312156131945761319361311c565b5b60006131a284828501613169565b91505092915050565b60008115159050919050565b6131c0816131ab565b82525050565b60006020820190506131db60008301846131b7565b92915050565b600081519050919050565b600082825260208201905092915050565b60005b8381101561321b578082015181840152602081019050613200565b8381111561322a576000848401525b50505050565b6000601f19601f8301169050919050565b600061324c826131e1565b61325681856131ec565b93506132668185602086016131fd565b61326f81613230565b840191505092915050565b600060208201905081810360008301526132948184613241565b905092915050565b6000819050919050565b6132af8161329c565b81146132ba57600080fd5b50565b6000813590506132cc816132a6565b92915050565b6000602082840312156132e8576132e761311c565b5b60006132f6848285016132bd565b91505092915050565b600073ffffffffffffffffffffffffffffffffffffffff82169050919050565b600061332a826132ff565b9050919050565b61333a8161331f565b82525050565b60006020820190506133556000830184613331565b92915050565b6133648161331f565b811461336f57600080fd5b50565b6000813590506133818161335b565b92915050565b6000806040838503121561339e5761339d61311c565b5b60006133ac85828601613372565b92505060206133bd858286016132bd565b9150509250929050565b600080fd5b600080fd5b600080fd5b60008083601f8401126133ec576133eb6133c7565b5b8235905067ffffffffffffffff811115613409576134086133cc565b5b602083019150836001820283011115613425576134246133d1565b5b9250929050565b600080602083850312156134435761344261311c565b5b600083013567ffffffffffffffff81111561346157613460613121565b5b61346d858286016133d6565b92509250509250929050565b6000806000606084860312156134925761349161311c565b5b60006134a086828701613372565b93505060206134b186828701613372565b92505060406134c2868287016132bd565b9150509250925092565b600080fd5b7f4e487b7100000000000000000000000000000000000000000000000000000000600052604160045260246000fd5b61350982613230565b810181811067ffffffffffffffff82111715613528576135276134d1565b5b80604052505050565b600061353b613112565b90506135478282613500565b919050565b600067ffffffffffffffff821115613567576135666134d1565b5b61357082613230565b9050602081019050919050565b82818337600083830152505050565b600061359f61359a8461354c565b613531565b9050828152602081018484840111156135bb576135ba6134cc565b5b6135c684828561357d565b509392505050565b600082601f8301126135e3576135e26133c7565b5b81356135f384826020860161358c565b91505092915050565b6000602082840312156136125761361161311c565b5b600082013567ffffffffffffffff8111156136305761362f613121565b5b61363c848285016135ce565b91505092915050565b61364e8161329c565b82525050565b60006020820190506136696000830184613645565b92915050565b6000602082840312156136855761368461311c565b5b600061369384828501613372565b91505092915050565b60006136a7826132ff565b9050919050565b6136b78161369c565b82525050565b60006020820190506136d260008301846136ae565b92915050565b6136e1816131ab565b81146136ec57600080fd5b50565b6000813590506136fe816136d8565b92915050565b6000806040838503121561371b5761371a61311c565b5b600061372985828601613372565b925050602061373a858286016136ef565b9150509250929050565b600067ffffffffffffffff82111561375f5761375e6134d1565b5b61376882613230565b9050602081019050919050565b600061378861378384613744565b613531565b9050828152602081018484840111156137a4576137a36134cc565b5b6137af84828561357d565b509392505050565b600082601f8301126137cc576137cb6133c7565b5b81356137dc848260208601613775565b91505092915050565b600080600080608085870312156137ff576137fe61311c565b5b600061380d87828801613372565b945050602061381e87828801613372565b935050604061382f878288016132bd565b925050606085013567ffffffffffffffff8111156138505761384f613121565b5b61385c878288016137b7565b91505092959194509250565b600080600080604085870312156138825761388161311c565b5b600085013567ffffffffffffffff8111156138a05761389f613121565b5b6138ac878288016133d6565b9450945050602085013567ffffffffffffffff8111156138cf576138ce613121565b5b6138db878288016133d6565b925092505092959194509250565b60008060408385031215613900576138ff61311c565b5b600061390e85828601613372565b925050602061391f85828601613372565b9150509250929050565b600081519050919050565b600082825260208201905092915050565b6000819050602082019050919050565b600082825260208201905092915050565b6000613971826131e1565b61397b8185613955565b935061398b8185602086016131fd565b61399481613230565b840191505092915050565b60006139ab8383613966565b905092915050565b6000602082019050919050565b60006139cb82613929565b6139d58185613934565b9350836020820285016139e785613945565b8060005b85811015613a235784840389528151613a04858261399f565b9450613a0f836139b3565b925060208a019950506001810190506139eb565b50829750879550505050505092915050565b60006020820190508181036000830152613a4f81846139c0565b905092915050565b7f4e487b7100000000000000000000000000000000000000000000000000000000600052602260045260246000fd5b60006002820490506001821680613a9e57607f821691505b60208210811415613ab257613ab1613a57565b5b50919050565b7f4552433732313a20617070726f76656420717565727920666f72206e6f6e657860008201527f697374656e7420746f6b656e0000000000000000000000000000000000000000602082015250565b6000613b14602c836131ec565b9150613b1f82613ab8565b604082019050919050565b60006020820190508181036000830152613b4381613b07565b9050919050565b7f4552433732313a20617070726f76616c20746f2063757272656e74206f776e6560008201527f7200000000000000000000000000000000000000000000000000000000000000602082015250565b6000613ba66021836131ec565b9150613bb182613b4a565b604082019050919050565b60006020820190508181036000830152613bd581613b99565b9050919050565b7f4552433732313a20617070726f76652063616c6c6572206973206e6f74206f7760008201527f6e6572206e6f7220617070726f76656420666f7220616c6c0000000000000000602082015250565b6000613c386038836131ec565b9150613c4382613bdc565b604082019050919050565b60006020820190508181036000830152613c6781613c2b565b9050919050565b600081905092915050565b6000613c858385613c6e565b9350613c9283858461357d565b82840190509392505050565b6000613cab828486613c79565b91508190509392505050565b7f4552433732313a207472616e736665722063616c6c6572206973206e6f74206f60008201527f776e6572206e6f7220617070726f766564000000000000000000000000000000602082015250565b6000613d136031836131ec565b9150613d1e82613cb7565b604082019050919050565b60006020820190508181036000830152613d4281613d06565b9050919050565b600081905092915050565b50565b6000613d64600083613d49565b9150613d6f82613d54565b600082019050919050565b6000613d8582613d57565b9150819050919050565b7f4661696c656420746f207769746864726177204d617469630000000000000000600082015250565b6000613dc56018836131ec565b9150613dd082613d8f565b602082019050919050565b60006020820190508181036000830152613df481613db8565b9050919050565b7f4552433732313a206f776e657220717565727920666f72206e6f6e657869737460008201527f656e7420746f6b656e0000000000000000000000000000000000000000000000602082015250565b6000613e576029836131ec565b9150613e6282613dfb565b604082019050919050565b60006020820190508181036000830152613e8681613e4a565b9050919050565b7f4552433732313a2062616c616e636520717565727920666f7220746865207a6560008201527f726f206164647265737300000000000000000000000000000000000000000000602082015250565b6000613ee9602a836131ec565b9150613ef482613e8d565b604082019050919050565b60006020820190508181036000830152613f1881613edc565b9050919050565b7f45524337323155524953746f726167653a2055524920717565727920666f722060008201527f6e6f6e6578697374656e7420746f6b656e000000000000000000000000000000602082015250565b6000613f7b6031836131ec565b9150613f8682613f1f565b604082019050919050565b60006020820190508181036000830152613faa81613f6e565b9050919050565b6000613fbc826131e1565b613fc68185613c6e565b9350613fd68185602086016131fd565b80840191505092915050565b6000613fee8285613fb1565b9150613ffa8284613fb1565b91508190509392505050565b600061401283856131ec565b935061401f83858461357d565b61402883613230565b840190509392505050565b6000602082019050818103600083015261404e818486614006565b90509392505050565b7f496e76616c696420726571756573742e204e6f7420656e6f756768204d61746960008201527f6320706169640000000000000000000000000000000000000000000000000000602082015250565b60006140b36026836131ec565b91506140be82614057565b604082019050919050565b600060208201905081810360008301526140e2816140a6565b9050919050565b7f2e00000000000000000000000000000000000000000000000000000000000000600082015250565b600061411f600183613c6e565b915061412a826140e9565b600182019050919050565b60008190508160005260206000209050919050565b6000815461415781613a86565b6141618186613c6e565b9450600182166000811461417c576001811461418d576141c0565b60ff198316865281860193506141c0565b61419685614135565b60005b838110156141b857815481890152600182019150602081019050614199565b838801955050505b50505092915050565b60006141d6828587613c79565b91506141e182614112565b91506141ed828461414a565b9150819050949350505050565b6000614206828661414a565b91506142128285613fb1565b915061421e828461414a565b9150819050949350505050565b7f7b226e616d65223a202200000000000000000000000000000000000000000000600082015250565b6000614261600a83613c6e565b915061426c8261422b565b600a82019050919050565b7f222c20226465736372697074696f6e223a20224120646f6d61696e206f6e207460008201527f68652053616d75726169206e616d652073657276696365222c2022696d61676560208201527f223a2022646174613a696d6167652f7376672b786d6c3b6261736536342c0000604082015250565b60006142f9605e83613c6e565b915061430482614277565b605e82019050919050565b7f222c226c656e677468223a220000000000000000000000000000000000000000600082015250565b6000614345600c83613c6e565b91506143508261430f565b600c82019050919050565b7f227d000000000000000000000000000000000000000000000000000000000000600082015250565b6000614391600283613c6e565b915061439c8261435b565b600282019050919050565b60006143b282614254565b91506143be8286613fb1565b91506143c9826142ec565b91506143d58285613fb1565b91506143e082614338565b91506143ec8284613fb1565b91506143f782614384565b9150819050949350505050565b7f646174613a6170706c69636174696f6e2f6a736f6e3b6261736536342c000000600082015250565b600061443a601d83613c6e565b915061444582614404565b601d82019050919050565b600061445b8261442d565b91506144678284613fb1565b915081905092915050565b7f4e487b7100000000000000000000000000000000000000000000000000000000600052603260045260246000fd5b7f4e487b7100000000000000000000000000000000000000000000000000000000600052601160045260246000fd5b60006144db8261329c565b91507fffffffffffffffffffffffffffffffffffffffffffffffffffffffffffffffff82141561450e5761450d6144a1565b5b600182019050919050565b600060408201905081810360008301526145338185613241565b905081810360208301526145478184613241565b90509392505050565b7f4552433732313a206f70657261746f7220717565727920666f72206e6f6e657860008201527f697374656e7420746f6b656e0000000000000000000000000000000000000000602082015250565b60006145ac602c836131ec565b91506145b782614550565b604082019050919050565b600060208201905081810360008301526145db8161459f565b9050919050565b7f4552433732313a207472616e736665722066726f6d20696e636f72726563742060008201527f6f776e6572000000000000000000000000000000000000000000000000000000602082015250565b600061463e6025836131ec565b9150614649826145e2565b604082019050919050565b6000602082019050818103600083015261466d81614631565b9050919050565b7f4552433732313a207472616e7366657220746f20746865207a65726f2061646460008201527f7265737300000000000000000000000000000000000000000000000000000000602082015250565b60006146d06024836131ec565b91506146db82614674565b604082019050919050565b600060208201905081810360008301526146ff816146c3565b9050919050565b60006147118261329c565b915061471c8361329c565b92508282101561472f5761472e6144a1565b5b828203905092915050565b60006147458261329c565b91506147508361329c565b9250827fffffffffffffffffffffffffffffffffffffffffffffffffffffffffffffffff03821115614785576147846144a1565b5b828201905092915050565b7f4552433732313a20617070726f766520746f2063616c6c657200000000000000600082015250565b60006147c66019836131ec565b91506147d182614790565b602082019050919050565b600060208201905081810360008301526147f5816147b9565b9050919050565b7f4552433732313a207472616e7366657220746f206e6f6e20455243373231526560008201527f63656976657220696d706c656d656e7465720000000000000000000000000000602082015250565b60006148586032836131ec565b9150614863826147fc565b604082019050919050565b600060208201905081810360008301526148878161484b565b9050919050565b600060808201905081810360008301526148a88187613241565b90506148b76020830186613331565b81810360408301526148c98185613241565b905081810360608301526148dd8184613241565b905095945050505050565b7f4552433732314d657461646174613a2055524920717565727920666f72206e6f60008201527f6e6578697374656e7420746f6b656e0000000000000000000000000000000000602082015250565b6000614944602f836131ec565b915061494f826148e8565b604082019050919050565b6000602082019050818103600083015261497381614937565b9050919050565b7f4e487b7100000000000000000000000000000000000000000000000000000000600052601260045260246000fd5b60006149b48261329c565b91506149bf8361329c565b9250826149cf576149ce61497a565b5b828204905092915050565b60006149e58261329c565b91506149f08361329c565b925082614a00576149ff61497a565b5b828206905092915050565b60006080820190508181036000830152614a258187613241565b90508181036020830152614a398186613241565b90508181036040830152614a4d8185613241565b9050614a5c6060830184613645565b95945050505050565b6000614a708261329c565b9150614a7b8361329c565b9250817fffffffffffffffffffffffffffffffffffffffffffffffffffffffffffffffff0483118215151615614ab457614ab36144a1565b5b828202905092915050565b7f45524337323155524953746f726167653a2055524920736574206f66206e6f6e60008201527f6578697374656e7420746f6b656e000000000000000000000000000000000000602082015250565b6000614b1b602e836131ec565b9150614b2682614abf565b604082019050919050565b60006020820190508181036000830152614b4a81614b0e565b9050919050565b60006060820190508181036000830152614b6b8186613241565b9050614b7a6020830185613331565b8181036040830152614b8c8184613241565b9050949350505050565b60006060820190508181036000830152614bb08186613241565b9050614bbf6020830185613645565b8181036040830152614bd18184613241565b9050949350505050565b600081519050919050565b600082825260208201905092915050565b6000614c0282614bdb565b614c0c8185614be6565b9350614c1c8185602086016131fd565b614c2581613230565b840191505092915050565b6000608082019050614c456000830187613331565b614c526020830186613331565b614c5f6040830185613645565b8181036060830152614c718184614bf7565b905095945050505050565b600081519050614c8b81613152565b92915050565b600060208284031215614ca757614ca661311c565b5b6000614cb584828501614c7c565b91505092915050565b7f4552433732313a206d696e7420746f20746865207a65726f2061646472657373600082015250565b6000614cf46020836131ec565b9150614cff82614cbe565b602082019050919050565b60006020820190508181036000830152614d2381614ce7565b9050919050565b7f4552433732313a20746f6b656e20616c7265616479206d696e74656400000000600082015250565b6000614d60601c836131ec565b9150614d6b82614d2a565b602082019050919050565b60006020820190508181036000830152614d8f81614d53565b905091905056fe5265676973746572696e672025732e2573206f6e2074686520636f6e7472616374207769746820746f6b656e49442025644142434445464748494a4b4c4d4e4f505152535455565758595a6162636465666768696a6b6c6d6e6f707172737475767778797a303132333435363738392b2f434f4e54524143543a2025732068617320726567697374657265642074686520646f6d61696e202573434f4e54524143543a202573206861732073657420746865206d617070696e6720666f7220646f6d61696e20257320746f2025732ea2646970667358221220be71fbc4dbf6037461509cae2dca8c5dc7ef805641c21b07d64e8bcb8fb23e1464736f6c634300080a0033434f4e54524143543a20557365207468697320636f6e747261637420746f206d6170206120646f6d61696e206e616d6520746f20616e2061726269747261727920737472696e672865673a20626c6f636b636861696e206164647265737329434f4e54524143543a20446f6d61696e7320536d61727420436f6e747261637420496e697469616c697a656420666f7220746c643a2025733c73766720786d6c6e733d22687474703a2f2f7777772e77332e6f72672f323030302f737667222077696474683d2232373022206865696768743d22323730222066696c6c3d226e6f6e65223e3c706174682066696c6c3d2275726c282342292220643d224d302030683237307632373048307a222f3e3c646566733e3c66696c7465722069643d22412220636f6c6f722d696e746572706f6c6174696f6e2d66696c746572733d2273524742222066696c746572556e6974733d227573657253706163654f6e55736522206865696768743d22323730222077696474683d22323730223e3c666544726f70536861646f772064783d2230222064793d22312220737464446576696174696f6e3d22322220666c6f6f642d6f7061636974793d222e323235222077696474683d223230302522206865696768743d2232303025222f3e3c2f66696c7465723e3c2f646566733e3c7061746820643d224d37322e3836332034322e393439632d2e3636382d2e3338372d312e3432362d2e35392d322e3139372d2e3539732d312e3532392e3230342d322e3139372e35396c2d31302e30383120362e3033322d362e383520332e3933342d31302e30383120362e303332632d2e3636382e3338372d312e3432362e35392d322e3139372e3539732d312e3532392d2e3230342d322e3139372d2e35396c2d382e3031332d342e37323161342e353220342e35322030203020312d312e3538392d312e363136632d2e3338342d2e3636352d2e3539342d312e3431382d2e3630382d322e313837762d392e3331632d2e3031332d2e3737352e3138352d312e3533382e3537322d322e32303861342e323520342e323520302030203120312e3632352d312e3539356c372e3838342d342e3539632e3636382d2e33383720312e3432362d2e353920322e3139372d2e353973312e3532392e32303420322e3139372e35396c372e38383420342e353961342e353220342e353220302030203120312e35383920312e363136632e3338342e3636352e35393420312e3431382e36303820322e31383776362e3033326c362e38352d342e303635762d362e303332632e3031332d2e3737352d2e3138352d312e3533382d2e3537322d322e32303861342e323520342e32352030203020302d312e3632352d312e3539354c34312e3435362032342e3539632d2e3636382d2e3338372d312e3432362d2e35392d322e3139372d2e3539732d312e3532392e3230342d322e3139372e35396c2d31342e38363420382e36353561342e323520342e32352030203020302d312e36323520312e353935632d2e3338372e36372d2e35383520312e3433342d2e35373220322e3230387631372e343431632d2e3031332e3737352e31383520312e3533382e35373220322e32303861342e323520342e323520302030203020312e36323520312e3539356c31342e38363420382e363535632e3636382e33383720312e3432362e353920322e3139372e353973312e3532392d2e32303420322e3139372d2e35396c31302e3038312d352e39303120362e38352d342e3036352031302e3038312d352e393031632e3636382d2e33383720312e3432362d2e353920322e3139372d2e353973312e3532392e32303420322e3139372e35396c372e38383420342e353961342e353220342e353220302030203120312e35383920312e363136632e3338342e3636352e35393420312e3431382e36303820322e31383776392e333131632e3031332e3737352d2e31383520312e3533382d2e35373220322e32303861342e323520342e32352030203020312d312e36323520312e3539356c2d372e38383420342e373231632d2e3636382e3338372d312e3432362e35392d322e3139372e3539732d312e3532392d2e3230342d322e3139372d2e35396c2d372e3838342d342e353961342e353220342e35322030203020312d312e3538392d312e363136632d2e3338352d2e3636352d2e3539342d312e3431382d2e3630382d322e313837762d362e3033326c2d362e383520342e30363576362e303332632d2e3031332e3737352e31383520312e3533382e35373220322e32303861342e323520342e323520302030203020312e36323520312e3539356c31342e38363420382e363535632e3636382e33383720312e3432362e353920322e3139372e353973312e3532392d2e32303420322e3139372d2e35396c31342e3836342d382e363535632e3635372d2e33393420312e3230342d2e393520312e3538392d312e363136732e3539342d312e3431382e3630392d322e3138375635352e353338632e3031332d2e3737352d2e3138352d312e3533382d2e3537322d322e32303861342e323520342e32352030203020302d312e3632352d312e3539356c2d31342e3939332d382e3738367a222066696c6c3d2223666666222f3e3c646566733e3c6c696e6561724772616469656e742069643d2242222078313d2230222079313d2230222078323d22323730222079323d2232373022206772616469656e74556e6974733d227573657253706163654f6e557365223e3c73746f702073746f702d636f6c6f723d2223666664373030222f3e3c73746f70206f66667365743d2231222073746f702d636f6c6f723d2223303030303030222073746f702d6f7061636974793d222e3939222f3e3c2f6c696e6561724772616469656e743e3c2f646566733e3c7465787420783d2233322e352220793d223233312220666f6e742d73697a653d223237222066696c6c3d2223666666222066696c7465723d2275726c282341292220666f6e742d66616d696c793d22506c7573204a616b617274612053616e732c44656a6156752053616e732c4e6f746f20436f6c6f7220456d6f6a692c4170706c6520436f6c6f7220456d6f6a692c73616e732d73657269662220666f6e742d7765696768743d22626f6c64223e",
    "linkReferences": {},
    "deployedLinkReferences": {}
}